{
  "_format": "hh-sol-artifact-1",
  "contractName": "CrowdFunding",
  "sourceName": "contracts/CrowdFunding.sol",
  "abi": [
    {
      "inputs": [
        {
          "internalType": "uint256",
          "name": "",
          "type": "uint256"
        }
      ],
      "name": "campaigns",
      "outputs": [
        {
          "internalType": "address",
          "name": "owner",
          "type": "address"
        },
        {
          "internalType": "string",
          "name": "title",
          "type": "string"
        },
        {
          "internalType": "string",
          "name": "description",
          "type": "string"
        },
        {
          "internalType": "uint256",
          "name": "target",
          "type": "uint256"
        },
        {
          "internalType": "uint256",
          "name": "deadline",
          "type": "uint256"
        },
        {
          "internalType": "uint256",
          "name": "amountCollected",
          "type": "uint256"
        }
      ],
      "stateMutability": "view",
      "type": "function"
    },
    {
      "inputs": [
        {
          "internalType": "address",
          "name": "_owner",
          "type": "address"
        },
        {
          "internalType": "string",
          "name": "_title",
          "type": "string"
        },
        {
          "internalType": "string",
          "name": "_description",
          "type": "string"
        },
        {
          "internalType": "uint256",
          "name": "_target",
          "type": "uint256"
        },
        {
          "internalType": "uint256",
          "name": "_deadline",
          "type": "uint256"
        }
      ],
      "name": "createCampaign",
      "outputs": [
        {
          "internalType": "uint256",
          "name": "",
          "type": "uint256"
        }
      ],
      "stateMutability": "nonpayable",
      "type": "function"
    },
    {
      "inputs": [
        {
          "internalType": "uint256",
          "name": "_id",
          "type": "uint256"
        }
      ],
      "name": "donateToCampaign",
      "outputs": [],
      "stateMutability": "payable",
      "type": "function"
    },
    {
      "inputs": [],
      "name": "getCampaigns",
      "outputs": [
        {
          "internalType": "address[]",
          "name": "owners",
          "type": "address[]"
        },
        {
          "internalType": "string[]",
          "name": "titles",
          "type": "string[]"
        },
        {
          "internalType": "string[]",
          "name": "descriptions",
          "type": "string[]"
        },
        {
          "internalType": "uint256[]",
          "name": "targets",
          "type": "uint256[]"
        },
        {
          "internalType": "uint256[]",
          "name": "deadlines",
          "type": "uint256[]"
        },
        {
          "internalType": "uint256[]",
          "name": "amountCollected",
          "type": "uint256[]"
        }
      ],
      "stateMutability": "view",
      "type": "function"
    },
    {
      "inputs": [
        {
          "internalType": "uint256",
          "name": "_id",
          "type": "uint256"
        }
      ],
      "name": "getDonators",
      "outputs": [
        {
          "internalType": "address[]",
          "name": "",
          "type": "address[]"
        },
        {
          "internalType": "uint256[]",
          "name": "",
          "type": "uint256[]"
        }
      ],
      "stateMutability": "view",
      "type": "function"
    },
    {
      "inputs": [],
      "name": "numberOfCampaigns",
      "outputs": [
        {
          "internalType": "uint256",
          "name": "",
          "type": "uint256"
        }
      ],
      "stateMutability": "view",
      "type": "function"
    }
  ],
  "bytecode": "0x6080604052600060015534801561001557600080fd5b5061191c806100256000396000f3fe6080604052600436106100555760003560e01c8063075843c31461005a57806307ca140d146100975780630fa91fa9146100c2578063141961bc1461010057806342a4fda814610142578063a6b036331461015e575b600080fd5b34801561006657600080fd5b50610081600480360381019061007c9190610d8d565b61018e565b60405161008e9190610e4f565b60405180910390f35b3480156100a357600080fd5b506100ac61029f565b6040516100b99190610e4f565b60405180910390f35b3480156100ce57600080fd5b506100e960048036038101906100e49190610e6a565b6102a5565b6040516100f7929190611013565b60405180910390f35b34801561010c57600080fd5b5061012760048036038101906101229190610e6a565b6103b5565b604051610139969594939291906110d8565b60405180910390f35b61015c60048036038101906101579190610e6a565b610521565b005b34801561016a57600080fd5b5061017361074a565b60405161018596959493929190611253565b60405180910390f35b60004282116101d2576040517f08c379a00000000000000000000000000000000000000000000000000000000081526004016101c990611350565b60405180910390fd5b600080600060015481526020019081526020016000209050868160000160006101000a81548173ffffffffffffffffffffffffffffffffffffffff021916908373ffffffffffffffffffffffffffffffffffffffff1602179055508581600101908161023e919061157c565b5084816002019081610250919061157c565b5083816003018190555082816004018190555060008160050181905550600160008154809291906102809061167d565b91905055506001805461029391906116c5565b91505095945050505050565b60015481565b6060806000808481526020019081526020016000206006016000808581526020019081526020016000206007018180548060200260200160405190810160405280929190818152602001828054801561035357602002820191906000526020600020905b8160009054906101000a900473ffffffffffffffffffffffffffffffffffffffff1673ffffffffffffffffffffffffffffffffffffffff1681526020019060010190808311610309575b50505050509150808054806020026020016040519081016040528092919081815260200182805480156103a557602002820191906000526020600020905b815481526020019060010190808311610391575b5050505050905091509150915091565b60006020528060005260406000206000915090508060000160009054906101000a900473ffffffffffffffffffffffffffffffffffffffff16908060010180546103fe9061139f565b80601f016020809104026020016040519081016040528092919081815260200182805461042a9061139f565b80156104775780601f1061044c57610100808354040283529160200191610477565b820191906000526020600020905b81548152906001019060200180831161045a57829003601f168201915b50505050509080600201805461048c9061139f565b80601f01602080910402602001604051908101604052809291908181526020018280546104b89061139f565b80156105055780601f106104da57610100808354040283529160200191610505565b820191906000526020600020905b8154815290600101906020018083116104e857829003601f168201915b5050505050908060030154908060040154908060050154905086565b6001548110610565576040517f08c379a000000000000000000000000000000000000000000000000000000000815260040161055c90611745565b60405180910390fd5b600034116105a8576040517f08c379a000000000000000000000000000000000000000000000000000000000815260040161059f906117b1565b60405180910390fd5b60003490506000806000848152602001908152602001600020905080600601339080600181540180825580915050600190039060005260206000200160009091909190916101000a81548173ffffffffffffffffffffffffffffffffffffffff021916908373ffffffffffffffffffffffffffffffffffffffff1602179055508060070182908060018154018082558091505060019003906000526020600020016000909190919091505560008160000160009054906101000a900473ffffffffffffffffffffffffffffffffffffffff1673ffffffffffffffffffffffffffffffffffffffff168360405161069d90611802565b60006040518083038185875af1925050503d80600081146106da576040519150601f19603f3d011682016040523d82523d6000602084013e6106df565b606091505b50509050801561070957828260050160008282546106fd9190611817565b92505081905550610744565b6040517f08c379a000000000000000000000000000000000000000000000000000000000815260040161073b90611897565b60405180910390fd5b50505050565b60608060608060608060015467ffffffffffffffff81111561076f5761076e610c2c565b5b60405190808252806020026020018201604052801561079d5781602001602082028036833780820191505090505b50955060015467ffffffffffffffff8111156107bc576107bb610c2c565b5b6040519080825280602002602001820160405280156107ef57816020015b60608152602001906001900390816107da5790505b50945060015467ffffffffffffffff81111561080e5761080d610c2c565b5b60405190808252806020026020018201604052801561084157816020015b606081526020019060019003908161082c5790505b50935060015467ffffffffffffffff8111156108605761085f610c2c565b5b60405190808252806020026020018201604052801561088e5781602001602082028036833780820191505090505b50925060015467ffffffffffffffff8111156108ad576108ac610c2c565b5b6040519080825280602002602001820160405280156108db5781602001602082028036833780820191505090505b50915060015467ffffffffffffffff8111156108fa576108f9610c2c565b5b6040519080825280602002602001820160405280156109285781602001602082028036833780820191505090505b50905060005b600154811015610b9657600080600083815260200190815260200160002090508060000160009054906101000a900473ffffffffffffffffffffffffffffffffffffffff16888381518110610986576109856118b7565b5b602002602001019073ffffffffffffffffffffffffffffffffffffffff16908173ffffffffffffffffffffffffffffffffffffffff16815250508060010180546109cf9061139f565b80601f01602080910402602001604051908101604052809291908181526020018280546109fb9061139f565b8015610a485780601f10610a1d57610100808354040283529160200191610a48565b820191906000526020600020905b815481529060010190602001808311610a2b57829003601f168201915b5050505050878381518110610a6057610a5f6118b7565b5b6020026020010181905250806002018054610a7a9061139f565b80601f0160208091040260200160405190810160405280929190818152602001828054610aa69061139f565b8015610af35780601f10610ac857610100808354040283529160200191610af3565b820191906000526020600020905b815481529060010190602001808311610ad657829003601f168201915b5050505050868381518110610b0b57610b0a6118b7565b5b60200260200101819052508060030154858381518110610b2e57610b2d6118b7565b5b6020026020010181815250508060040154848381518110610b5257610b516118b7565b5b6020026020010181815250508060050154838381518110610b7657610b756118b7565b5b602002602001018181525050508080610b8e9061167d565b91505061092e565b50909192939495565b6000604051905090565b600080fd5b600080fd5b600073ffffffffffffffffffffffffffffffffffffffff82169050919050565b6000610bde82610bb3565b9050919050565b610bee81610bd3565b8114610bf957600080fd5b50565b600081359050610c0b81610be5565b92915050565b600080fd5b600080fd5b6000601f19601f8301169050919050565b7f4e487b7100000000000000000000000000000000000000000000000000000000600052604160045260246000fd5b610c6482610c1b565b810181811067ffffffffffffffff82111715610c8357610c82610c2c565b5b80604052505050565b6000610c96610b9f565b9050610ca28282610c5b565b919050565b600067ffffffffffffffff821115610cc257610cc1610c2c565b5b610ccb82610c1b565b9050602081019050919050565b82818337600083830152505050565b6000610cfa610cf584610ca7565b610c8c565b905082815260208101848484011115610d1657610d15610c16565b5b610d21848285610cd8565b509392505050565b600082601f830112610d3e57610d3d610c11565b5b8135610d4e848260208601610ce7565b91505092915050565b6000819050919050565b610d6a81610d57565b8114610d7557600080fd5b50565b600081359050610d8781610d61565b92915050565b600080600080600060a08688031215610da957610da8610ba9565b5b6000610db788828901610bfc565b955050602086013567ffffffffffffffff811115610dd857610dd7610bae565b5b610de488828901610d29565b945050604086013567ffffffffffffffff811115610e0557610e04610bae565b5b610e1188828901610d29565b9350506060610e2288828901610d78565b9250506080610e3388828901610d78565b9150509295509295909350565b610e4981610d57565b82525050565b6000602082019050610e646000830184610e40565b92915050565b600060208284031215610e8057610e7f610ba9565b5b6000610e8e84828501610d78565b91505092915050565b600081519050919050565b600082825260208201905092915050565b6000819050602082019050919050565b610ecc81610bd3565b82525050565b6000610ede8383610ec3565b60208301905092915050565b6000602082019050919050565b6000610f0282610e97565b610f0c8185610ea2565b9350610f1783610eb3565b8060005b83811015610f48578151610f2f8882610ed2565b9750610f3a83610eea565b925050600181019050610f1b565b5085935050505092915050565b600081519050919050565b600082825260208201905092915050565b6000819050602082019050919050565b610f8a81610d57565b82525050565b6000610f9c8383610f81565b60208301905092915050565b6000602082019050919050565b6000610fc082610f55565b610fca8185610f60565b9350610fd583610f71565b8060005b83811015611006578151610fed8882610f90565b9750610ff883610fa8565b925050600181019050610fd9565b5085935050505092915050565b6000604082019050818103600083015261102d8185610ef7565b905081810360208301526110418184610fb5565b90509392505050565b61105381610bd3565b82525050565b600081519050919050565b600082825260208201905092915050565b60005b83811015611093578082015181840152602081019050611078565b60008484015250505050565b60006110aa82611059565b6110b48185611064565b93506110c4818560208601611075565b6110cd81610c1b565b840191505092915050565b600060c0820190506110ed600083018961104a565b81810360208301526110ff818861109f565b90508181036040830152611113818761109f565b90506111226060830186610e40565b61112f6080830185610e40565b61113c60a0830184610e40565b979650505050505050565b600081519050919050565b600082825260208201905092915050565b6000819050602082019050919050565b600082825260208201905092915050565b600061118f82611059565b6111998185611173565b93506111a9818560208601611075565b6111b281610c1b565b840191505092915050565b60006111c98383611184565b905092915050565b6000602082019050919050565b60006111e982611147565b6111f38185611152565b93508360208202850161120585611163565b8060005b85811015611241578484038952815161122285826111bd565b945061122d836111d1565b925060208a01995050600181019050611209565b50829750879550505050505092915050565b600060c082019050818103600083015261126d8189610ef7565b9050818103602083015261128181886111de565b9050818103604083015261129581876111de565b905081810360608301526112a98186610fb5565b905081810360808301526112bd8185610fb5565b905081810360a08301526112d18184610fb5565b9050979650505050505050565b7f54686520646561646c696e652073686f756c642062652061206461746520696e60008201527f20746865206675747572652e0000000000000000000000000000000000000000602082015250565b600061133a602c83611064565b9150611345826112de565b604082019050919050565b600060208201905081810360008301526113698161132d565b9050919050565b7f4e487b7100000000000000000000000000000000000000000000000000000000600052602260045260246000fd5b600060028204905060018216806113b757607f821691505b6020821081036113ca576113c9611370565b5b50919050565b60008190508160005260206000209050919050565b60006020601f8301049050919050565b600082821b905092915050565b6000600883026114327fffffffffffffffffffffffffffffffffffffffffffffffffffffffffffffffff826113f5565b61143c86836113f5565b95508019841693508086168417925050509392505050565b6000819050919050565b600061147961147461146f84610d57565b611454565b610d57565b9050919050565b6000819050919050565b6114938361145e565b6114a761149f82611480565b848454611402565b825550505050565b600090565b6114bc6114af565b6114c781848461148a565b505050565b5b818110156114eb576114e06000826114b4565b6001810190506114cd565b5050565b601f82111561153057611501816113d0565b61150a846113e5565b81016020851015611519578190505b61152d611525856113e5565b8301826114cc565b50505b505050565b600082821c905092915050565b600061155360001984600802611535565b1980831691505092915050565b600061156c8383611542565b9150826002028217905092915050565b61158582611059565b67ffffffffffffffff81111561159e5761159d610c2c565b5b6115a8825461139f565b6115b38282856114ef565b600060209050601f8311600181146115e657600084156115d4578287015190505b6115de8582611560565b865550611646565b601f1984166115f4866113d0565b60005b8281101561161c578489015182556001820191506020850194506020810190506115f7565b868310156116395784890151611635601f891682611542565b8355505b6001600288020188555050505b505050505050565b7f4e487b7100000000000000000000000000000000000000000000000000000000600052601160045260246000fd5b600061168882610d57565b91507fffffffffffffffffffffffffffffffffffffffffffffffffffffffffffffffff82036116ba576116b961164e565b5b600182019050919050565b60006116d082610d57565b91506116db83610d57565b92508282039050818111156116f3576116f261164e565b5b92915050565b7f43616d706169676e20646f6573206e6f742065786973742e0000000000000000600082015250565b600061172f601883611064565b915061173a826116f9565b602082019050919050565b6000602082019050818103600083015261175e81611722565b9050919050565b7f446f6e6174696f6e206d7573742062652067726561746572207468616e20302e600082015250565b600061179b602083611064565b91506117a682611765565b602082019050919050565b600060208201905081810360008301526117ca8161178e565b9050919050565b600081905092915050565b50565b60006117ec6000836117d1565b91506117f7826117dc565b600082019050919050565b600061180d826117df565b9150819050919050565b600061182282610d57565b915061182d83610d57565b92508282019050808211156118455761184461164e565b5b92915050565b7f4661696c656420746f2073656e6420457468657220746f206f776e65722e0000600082015250565b6000611881601e83611064565b915061188c8261184b565b602082019050919050565b600060208201905081810360008301526118b081611874565b9050919050565b7f4e487b7100000000000000000000000000000000000000000000000000000000600052603260045260246000fdfea264697066735822122095326746122caed9e98fc5f8af42014b4d58be139d8481b43eb7f5d21263f70364736f6c63430008130033",
  "linkReferences": {},
  "deployedLinkReferences": {}
}